:020000040800F2
:10000000781D0020B16000081D5F00081F5F000818
:10001000215F0008235F0008255F00080000000042
:10002000000000000000000000000000275F000842
:10003000295F0008000000002B5F00082D5F00080A
:100040004161000845610008496100084D610008F0
:100050005161000855610008596100085D610008A0
:100060006161000865610008696100086D61000850
:100070007161000875610008796100087D61000800
:100080008161000885610008896100088D610008B0
:100090009161000895610008996100089D61000860
:1000A000A1610008A5610008A9610008AD61000810
:1000B000B1610008B5610008B9610008BD610008C0
:1000C000C1610008C5610008C9610008CD61000870
:1000D000D1610008D5610008D9610008DD61000820
:1000E000E1610008E5610008E96100080000000026
:1000F0000000000000000000000000000000000000
:100100000000000000000000ED610008F16100083F
:100110006D5F0008F96100082F5F00084B5F000861
:1001200005620008096200080D62000811620008FB
:1001300015620008196200081D62000821620008AB
:1001400025620008296200082D620008316200085B
:100150002DE9F04F80460FF20C60A5B017461D4602
:10016000D0E90023CDE91223002004910D900DF178
:10017000500A6FF0004900E0E7190020ADF80200D6
:1001800012AB4FF0FF3239460DF1020000F0A2FF32
:100190000446012C04DA3878441EA441E043C40F1D
:1001A000BDF8020025280CBFA4F1010BA346BBF14A
:1001B000010F0EDB3E4616F8011B0498C047049061
:1001C000002800F0C9820D98401CBBF1010B0D9076
:1001D000F1D1BDF80200252807D100200790089032
:1001E00009900A900B900C9005E00028C4D10D985E
:1001F000B4E240F0010017F8011F2029F9D02329AB
:100200000DD02B2904D02D2906D030290AD00CE09E
:1002100040F0020080B2EEE740F00400FAE740F060
:100220000800F7E740F01000F4E72A290ED129680A
:10023000296051F8042B2960002A0F9204D55142FD
:1002400040F004000F9180B27F1C11E000210F915B
:1002500009E00F99494505D001EB810302EB430109
:1002600030390F917F1C3A78A2F130010A29F0D37E
:1002700039782E2903D04FF0FF310E911DE017F889
:10028000011F2A2907D1296829607F1C51F8042BF6
:1002900029600E9211E000210E9109E00E99494566
:1002A00005D001EB810302EB430130390E917F1C35
:1002B0003A78A2F130010A29F0D3ADF840000FF2EC
:1002C000AC40397800F016FF08B117F8010B8DF833
:1002D00042009DF84200682802BF397868296220F0
:1002E00005D06C2804BF38786C2803D171208DF8B4
:1002F00042007F1C14A8069017F8014BB4F12500AA
:1003000024D02038022840F2C580133800F0EB805A
:100310000B3800F04F81401E00F02481401E02285F
:1003200040F2B880001F00F01D81401F00F0838064
:10033000401E00F0D880401E2DD0C01E0CD0801E64
:1003400000F0D180C01E00F0CE8056E10120079061
:1003500025208DF850005BE19DF842006C2828684C
:10036000286014D050F8046B286005960E9C002C71
:1003700004D5304600F0DAFE044606E022460021AD
:10038000304600F0F3FE00B1841B089440E150F8C1
:10039000042B28602AE1296829603C2451F8040BC9
:1003A00029600021CDE9020114A80590DDE90201D0
:1003B000069E11B908B90E9AB2B10206120FA0EB4F
:1003C00002123032631ED2B23A2AA8BF2732000985
:1003D00040EA017009099A5508BF00281C4603D05D
:1003E000059AA3199A42E8D3A0190590C4F13C01DB
:1003F0000E980891814209DA401A0A904FF6EF717F
:10040000BDF840000840ADF8400001E1002840F18F
:10041000FF809DF8400000F01400102840F0F880A4
:100420000F98079A801A0A9A801A401A0128C0F277
:10043000EF800A90ECE09DF8420062281AD068280C
:1004400006D06A280CD06C281CD0712808D019E07E
:100450002868286050F8041B28600D980880D7E0B1
:100460002868286050F8042B28600D98C117C2E94D
:100470000001CDE02868286050F8041B28600D9822
:100480000870C5E02868286050F8041B28600D98A3
:100490000860BDE02868C01D20F007022A60D2E98C
:1004A000000108322A60CDE90201002903D50120AC
:1004B00007902D200CE0BDF84000810703D50120F6
:1004C00007902B2004E0C00704D5012007902020CE
:1004D0008DF85000079914A808180590214602A825
:1004E00000F0B0FB94E09DF842206C2A0DD0712AF8
:1004F00018BF6A2A09D12868C01D20F007032B60A5
:10050000D3E9000108332B6005E02968296051F820
:10051000040B29600021CDE90201682A08BF80B2DE
:1005200007D0622A08BFC0B203D0742A18BF7A2A43
:1005300002D10021CDE902019DF84000000730D52D
:10054000DDE90201002908BF00282AD044F020007C
:10055000782826D130208DF850008AF801400220FA
:1005600007901EE09DF84200294600F003F9CDE90E
:100570000201002904DA0798411C07912D210EE0A1
:10058000BDF84000810704D50798411C07912B2135
:1005900005E0C00705D50798411C0791202100F808
:1005A0000A10079914A808180590214602A800F01F
:1005B000A1FA2DE09DF842006C2809D00120079097
:1005C0002868286050F8041B28608DF850101FE040
:1005D0002868286001AA50F8041B2860ADF80410B0
:1005E0000020ADF806004FF0FF300E9002A9404603
:1005F00000F0F7F800280BD5AEE001200790252089
:100600008DF8500024B10798411C079100F80A406A
:100610000F980799401A0A99401A0899401A0B999D
:10062000401A0999401A0C99441A9DF84000400755
:1006300010D420208DF80000002609E0012300AA34
:1006400002A9404600F020FD002840F08580761C7D
:10065000A642F3DB079E0DF1500B0AE01BF8011BCD
:100660000498C0470490002876D00D98401C0D9047
:10067000761E002EF2D130208DF800004FF0000BD6
:100680000A9E09E0012300AA02A9404600F0FCFCF2
:10069000002861D10BF1010BB345F3DB089EDDF8B7
:1006A00014B00AE01BF8011B0498C047049000280E
:1006B00052D00D98401C0D90761E002EF2D13020A5
:1006C0008DF800004FF0000B0B9E09E0012300AAFB
:1006D00002A9404600F0D8FC00283DD10BF1010BE7
:1006E000B345F3DB05980899099E01EB000B09E07F
:1006F0001BF8011B0498C047049068B30D98401C78
:100700000D90761E002EF3D130208DF800004FF0B2
:10071000000B0C9E08E0012300AA02A9404600F04D
:10072000B3FCC8B90BF1010BB345F4DB9DF84000F5
:1007300040077FF522AD20208DF80000002600E064
:10074000761CA642BFF619AD012300AA02A94046B5
:1007500000F09AFC0028F3D04FF0FF3025B0BDE840
:10076000F08F00000000000000000000686A6C7458
:100770007A4C0000622826D068281DD06A2808D04C
:100780006C2827D0712804D0742823D07A280CD064
:1007900020E00868C01D20F007000860D0E90023B1
:1007A000083008601946104670470A680A6052F817
:1007B000040B0A60002170470A680A6052F8040BB3
:1007C0000A6000B20BE00A680A6052F8040B0A6083
:1007D00040B204E00A680A6052F8040B0A60C117CC
:1007E00070472DE9F44F0D4694B0D5F830B0BBF109
:1007F000000F804648BF6FF0004B00F0E3FC696BD0
:10080000401801900FF6C400D0E90023CDE902237F
:1008100095F83800400702D40198412806D24020BC
:100820000DF1100A01904FF0000909E000F0D0FC32
:100830005FEA000AF7D14FF0FF3058E1ABEB040B51
:10084000BBF1010FC0F2CD801498018802AA0DF10E
:10085000010000F015FD0028044600F1D580149831
:10086000008810B9641E00F1CF80A345C0F2B980A2
:10087000686901992218914280F0A180C5F83490EE
:100880004042296A401AA969401A696A401AE9690E
:10089000401AA96AA0EB010995F83800400710D466
:1008A00020208DF80000002609E0012300AA294637
:1008B000404600F0E9FB002840F0A680761C4E453B
:1008C000F3DB6E6957460BE017F8011BA868C047B9
:1008D000A860002800F09880E86A401CE862761E54
:1008E000002EF1D130208DF8000000272E6A09E09B
:1008F000012300AA2946404600F0C6FB002840F02C
:1009000083807F1CB742F3DBAE69EF680AE017F81B
:10091000011BA868C047A860002875D0E86A401C81
:10092000E862761E002EF2D130208DF800000027FC
:100930006E6A08E0012300AA2946404600F0A4FBA5
:10094000002861D17F1CB742F4DBE868A969EE6931
:100950000F180AE017F8011BA868C047A860002814
:1009600052D0E86A401CE862761E002EF2D1302098
:100970008DF800000027AE6A08E0012300AA29468E
:10098000404600F081FB00283ED17F1CB742F4DBDB
:1009900095F8380040070ED520208DF8000000267D
:1009A00007E0012300AA2946404600F06DFB58BB32
:1009B000761C4E45F5DB4FF00009C5F81490224631
:1009C00068690DF10101504400F068FC6869201865
:1009D00068611498801C1490801E008800287FF4A1
:1009E0002DAF686B6969401A296A401AA969401AD3
:1009F000696A401AE969401AA96A471A95F83800E5
:100A0000400710D400240CE04FF0FF3968E0A868DC
:100A10002021C0470028A860F6D0E86A401CE862A0
:100A2000641CBC42F3DB6B6952462946404600F029
:100A30002BFB0028E8D12C6A002609E0A8683021A9
:100A4000C0470028A860DFD0E86A401CE862761C36
:100A5000A642F3DBAB69EA682946404600F014FB86
:100A60000028D1D16C6A002609E0A8683021C0476F
:100A70000028A860C8D0E86A401CE862761CA6423C
:100A8000F3DBE868A969EB690A182946404600F0DB
:100A9000FBFA0028B8D1AC6A002609E0A86830212A
:100AA000C0470028A860AFD0E86A401CE862761C06
:100AB000A642F3DB95F8380040070DD5002409E085
:100AC000A8682021C0470028A8609DD0E86A401C83
:100AD000E862641CBC42F3DBC5F81490C5F834909E
:100AE00004A882451CBF504600F014FC484615B0CF
:100AF000BDE8F08F2DE9FA4E05460A462F696F2AA8
:100B000008BF082405D041F02000782814BF0A242B
:100B100010243C26D5E90001642A18BF692A8146C1
:100B20008A4605D1002903DAD9F100096AEB4A0A9D
:100B3000BAF1000F08BFB9F1000F0CD1286B50B902
:100B4000082C36D195F83800000732D530203B26E6
:100B500087F83B002DE0E31748465146224600F057
:100B600019FCA4FB0023A9EB02023032D2B2A6F199
:100B7000010B3A2A5E4603DB9DF80030513B9A1880
:100B800081465FEA010A0BF8072008BFB9F1000FA0
:100B900003D0E868F1198842DDD3082C09D195F813
:100BA0003800000705D5F05D302802D0761E3020D1
:100BB000F055C6F13C00A861F119E960296B884243
:100BC00008DA081A28624FF6EF71288F0840288744
:100BD000BDE8F38E00290ED595F8381001F0140108
:100BE000102908D1696B6A69891A2A6A891A081A50
:100BF0000128A8BF2862BDE8F38E2DE9D043064640
:100C00000F4614464FF00008DFF8349012E0E0077A
:100C100007D542464B463046394600F033FC06467F
:100C20000F4664104046494642464B4600F02AFCB7
:100C300080468946002CEAD130463946BDE8D0834B
:100C4000000024402DE9F04F04468BB0206BD4E91E
:100C5000009B00288A4601AF48BF062005D404BF88
:100C60004AF02000672801D101202063CBF30A500D
:100C700040F2FF7290421BD15FEA0B3008BF5FEA7F
:100C8000090008D10320A061AAF161001A283DD310
:100C90000FF2304107E00320A061AAF161001A2899
:100CA00031D30FF21841E068032200F0F7FACDE0EB
:100CB000012807DA204600F0B6FC012802DB0023F9
:100CC0000026BBE0626840F2FE3161F31E526260B2
:100CD000461A484659460022002300F0C5FC38BF9A
:100CE0008BF0004B36B247F297507043334990FB7C
:100CF000F1F636B2C6F10702012A0ADB4846594628
:100D0000FFF77BFF10E00FF2B031CCE70FF2B0310C
:100D1000C9E7524200202A49FFF76FFF02460B46FF
:100D20004846594600F0B8FC8B464AF020058146FB
:100D3000662D216B0CBF06F10A0006204718142F00
:100D4000A8BF132730208DF804000DF10508012FEE
:100D50003ADB4846594600F0C3FD014608F1080257
:100D600004234FF00A0CB1FBFCFC0CEB8C08A1EB4C
:100D70004801303102F8011D0A21BCFBF1FE0EEBE7
:100D80008E08ACEB480C0CF1300C5B1E714602F87F
:100D900001CDE6D1083F012F02F10808D7DB00F0B2
:100DA000B5FD02460B464846594600F0BDFD0022FF
:100DB000044B00F067FB81468B46CAE7A086010022
:100DC0000000F03F84D797410DF10500A8EB00002B
:100DD0000DF1050702E0401E761E7F1C3978302990
:100DE000F9D0662D02D136B2711C03E0652D0CBF1F
:100DF00001210021226B8B181BB29842B8BF034619
:100E00001BB219001AD4814204DAC85D3528A8BF84
:100E1000392000DA3020CA19521E00E05B1E12F899
:100E20000159491E8542F9D0392802D1C85D401CBC
:100E3000C855002902D57F1E5B1C761C36B2009671
:100E40001BB23A465146204600F003F80BB0BDE80D
:100E5000F08F2DE9F04786B006468A4690461D463B
:100E600000F03FFE406A376B90F80090012D02DAE7
:100E700001250FF254284AF02000BDF938406628B9
:100E800008BF641C13D0672840F0888014F1040F59
:100E900073DBBC4271DA96F83800641C000702D498
:100EA000BD42B8BF2F4624B23F1B48BF002724B223
:100EB000F068B169012C21DA4A1C30230B54012F50
:100EC00003DA96F83810090702D502F80090521C90
:100ED000E742B8BF7C4224B26142E719AF42B26137
:100EE000B8BF3D4671622DB2F5612A46B3694146ED
:100EF000181800F0D3F9781BB062AEE00818A542CC
:100F000016DA2A46414600F0C9F9B1696918601B32
:100F1000B161012F706203DA96F83800000705D539
:100F2000F06801F80090F069401CF061B76294E04D
:100F30002246414600F0B2F9B06920182D1B012F5E
:100F400003DA96F83810090703D5F16800F8019024
:100F5000401CB0612DB2AF42B8BF3D46F068B369E6
:100F60002DB22A4604EB0801181800F097F9B06971
:100F70002818B061781B70626FE0BD4204DA96F801
:100F80003810090758BF2F467F1E48BF0027BAF107
:100F9000670F0CBF4FF0650A4FF0450AB169F06862
:100FA00018F8013B0B544A1C012F05DA96F838104B
:100FB000090758BFB26115D502F80090531C012FE4
:100FC000B3610FDB6D1E2DB2AF42B8BF3D462DB2EF
:100FD0002A464146181800F061F9B0692818B06136
:100FE000781B7062F068B16901EB0008200008F816
:100FF00001AB03D42B2008F8010B03E02D2108F8E6
:10100000011B6442002502AF08E00A2200A800F09C
:1010100081FD019807F8010B6D1C009C21B201298C
:10102000F3DA022D06DA4AF02000652804BF3020EA
:1010300008F8010B4DB9302008F8010B07E06D1ED0
:1010400002A8285C303008F8010B012DF7DAF068AF
:10105000B1690818A8EB0000F06196F8380000F0BC
:10106000140010280DD17069B1690818716A081848
:10107000F1690818B16A0818716B8842BCBF081A78
:10108000306206B0BDE8F087F8B504460D46164656
:101090001F46002004E0E86A401CE8627F1E002032
:1010A00047B116F8011BA868A047A8600028F2D134
:1010B0004FF0FF30F2BD00006E616E004E414E00F9
:1010C000696E6600494E46003000000000000000D6
:1010D00000000000F8B504460D4616461F4600F015
:1010E0002AFD3B4632462946204601B0BDE8F04085
:1010F00000F037BD0278C9B28A421AB11CBF10F89D
:10110000012FF9E718BF0020704750F8041B61B1A8
:1011100050F8042BD30744BFA9F101039A18002308
:10112000091F42F8043BFAD1EFE7704700F10103D1
:10113000810704D010F8011B89B18107FAD1026838
:10114000B2F10131914311F0803F04BF50F8042FF8
:10115000F6E710F8011B11B110F8011BFBE7C01AEC
:1011600070470268531C036011707047C9B283074F
:1011700006D0521E22D310F8013B9942F7D11FE04E
:10118000083A13D302F1040241EA012141EA014184
:1011900050F8043B121F21BF4B40A3F1013C2CEA45
:1011A000030C1CF0803FF3D0C9B2001F083210F8C6
:1011B000013B521E28BF91EA030FF8D818BF012047
:1011C000401E704780B500F0B6FC012002BD000053
:1011D00070B5054605F10F00C408E400C046C046DE
:1011E000A54232D2082C04D2082402E0083000F0D4
:1011F00091F82248026811000CD1011D0A6802B35F
:101200001368A34238BF111DF8D310E01D68A54232
:101210000DD2191D0B68002BF8D11268011D00E0DA
:10122000191D0B6893420CD01D68A542F8D361B11B
:101230000D682A68A2F10803A3420AD26A680A600C
:101240000FE000F0B1FC0028D0D1C046C04600201D
:1012500070BD63190B60121B6E685E600B681A60CC
:101260002C60096800291DBF4A68002A091D002159
:101270000160C046C04605F1080070BD3419002069
:1012800070B504460D46164600F055FC3246294618
:101290002046BDE8704000F057BC000062B38B07E9
:1012A00008D0521E11F8013B00F8013B00F02480E9
:1012B0008B07F6D1830740F0208000BF103A07D398
:1012C00030B4B1E83810103AA0E83810F9D230BC88
:1012D000530724BFB1E80810A0E8081044BF51F834
:1012E000043B40F8043BD20724BF31F8022B20F81E
:1012F000022B44BF0B7803707047083A07D3B1E85C
:101300000810083A40F8043B40F804CBF7D25307E2
:10131000E4E7000000B9704738B5A0F10804206880
:10132000082833D310F0070F30D1C046C046184804
:10133000416809B18C4203D26160446017E01946EC
:101340004B680BB1A342FAD30B685D18AC421BD3B8
:10135000A54204D12268D2180A600C4607E04A6808
:101360001AB123681B199A420ED362604C606168FF
:1013700051B1226813198B4206D10023036008681B
:101380008018206048686060C046C04631BD0000DB
:10139000341900201B4213D1094236D12AB18446A8
:1013A000B0FBF2F002FB10C2704700F013BCFCD39C
:1013B0000022002370470B0002000021002070472C
:1013C000904271EB030CF6D370B5B1FA81F4B3FA25
:1013D00083F52C1BA340C4F1200532FA05F63343F4
:1013E000A2405FF00046E64002E05B085FEA32029E
:1013F000841A71EB030524BF204629467641F4D3B5
:1014000002000B003000002170BD012ACFD970B559
:10141000140C20D0B1FA81F4B2FA82F5C4F12004A0
:101420006419B4F12006D6D3B2405FF00044F44012
:10143000002502E052085FEA3303C61A71EB020E80
:1014400024BF3046714664416D41F3D302000B0066
:101450002000290070BD0C46B1FBF2F102FB1145E2
:101460002D0445EA1045B5FBF2F402FB145580B299
:1014700040EA0545B5FBF2F002FB105240EA044099
:1014800070BD0000B0B581EA030C0CF0004C40F2D6
:10149000FF7515EA11541DBF15EA1357AC42AF4250
:1014A00039E0E41923EA455343F48013C90241F0BB
:1014B000004141EA505EC7021100A7FB020200286A
:1014C0004FF00000EEFB01204FF00001E3FB07218D
:1014D00018BF42F00102401800214941E3FB0E0110
:1014E000A4F580640F0302D252004041494154F1F7
:1014F00001046CDD470872F1004250F1000051EB2D
:101500000451A1F580115CBF41EA0C01B0BD4CEA69
:1015100005510020B0BD05EA1357AC4214BFAF42DD
:1015200041E050EA410E1CBF52EA430E02E0614620
:101530000020B0BD24423C441BD15FEA070EF6D028
:10154000090302BF01460020AEF1140EB1FA81F783
:10155000AEEB070401FA07FE0C37C7F1200100FAD1
:1015600007F7C8404EEA000E23EA455343F48013C0
:10157000A2E733F00043B3FA83F704BFB2FA82FE66
:1015800077440B3FE41BB7F1200E2FBF02FA0EF396
:10159000BB40C7F1200E22FA0EFE38BF43EA0E030D
:1015A000BA40641C82E750EA410E14BF52EA430E6F
:1015B0006FF000014FF4001717EB430F8ABF194675
:1015C00017EB410FB5E74CEA05510020B0BDD4F14F
:1015D0000104B4F120070FDAC4F12007520828BF34
:1015E00042F0010210FA07F501FA07F7E1BF2A43BA
:1015F000E0403843E1400FE0352C98DCC7F120048F
:1016000052EA400220FA07F218BF42F0010231FA12
:1016100007F0A1400A43002172F1004250F100009E
:1016200051EB0C01B0BD30B4436803F0004201211E
:101630001B031B0B436004BF0368002B08D10DE0A4
:101640000368DD0F45EA440444605B000360491E03
:101650004468E302F4D523031B0B436043681A4339
:101660004260084630BC70474FF4001C1CEB410F31
:1016700094BF1CEB430F09E041EA030C50EA4C0C09
:1016800052EA0C0C03D2994208BF9042704714BF33
:101690008B42824270470000F0B540F2FF7581EA4C
:1016A000030C0CF0004C15EA11541DBF15EA13573A
:1016B000AC42AF42E5E0BC41C1F31301C3F31303F5
:1016C000801A994143F4801304D2641E40004941BA
:1016D00080185941C90241EA5051B1FBF3F603FBAE
:1016E0001611A2FB0675D7EBC020A94102D2761EC7
:1016F00080185941C90241EA5051B1FBF3FE03FB86
:101700001E11A2FB0E75D7EBC020A94103D2AEF18A
:10171000010E80185941890241EA9051760546EA46
:101720008E2EB1FBF3F603FB1611A2FB0675D7EB69
:101730008020A94102D2761E80185941C90241EA8F
:1017400050514EEA060EB1FBF3F603FB1611A2FB55
:101750000675D7EBC020A94102D2761E80185941E8
:10176000C90241EA5051B1FBF3F703FB1711A2FB89
:101770000735D3EBC020A94167F100070CBF004239
:1017800047F0010766F3D5274FEA1E31B80814F574
:10179000806412DDBD0775F1004250EB0E5051EB35
:1017A000045111F5801F5CBF41EA0C01F0BD4CF003
:1017B0007F6141F0E0410020F0BDBD076D0840EAC7
:1017C0000E5041F48011D4F10104B4F120060ADA7C
:1017D000C4F120060200E04001FA06F3E14018439C
:1017E000B24015430EE0342C13DCC6F1200445EA68
:1017F00040056D0820FA06F2154321FA06F0A140D3
:101800000D43002175F1004250F1000051EB0C0135
:10181000F0BD00205FEA0C01F0BDCFB992185B412A
:10182000B3FA83F704BFB2FA82F6BF190B3FB7F1E0
:1018300020062FBF02FA06F3BB40C7F1200622FAAA
:1018400006F638BF3343BA401CB1E419641E33E7CF
:101850007F4231F00041B1FA81F404BFB0FA80F662
:10186000A4190B3CB4F120062FBF00FA06F1A140E9
:10187000C4F1200620FA06F638BF3143A0403C1BD5
:101880001AE7AC421ABF05EA1357AF4212E050EA1A
:1018900041061CBF52EA4306BFE750EA4107304603
:1018A00061461CBF41EA0551F0BD52EA430C08BF36
:1018B000C143F0BD00204FF4001616EB410F98BF56
:1018C00016EB430F08BF16EB410F24BFC14305E0E1
:1018D00016EB430F0CBF61464CEA0551F0BD00000A
:1018E000400D40EAC120490080F00D8040F00040EA
:1018F000490DA1F58061491C05D4D1F11F0154BFE8
:10190000C840C01770474FF000007047010000BF8B
:1019100009D0B0FA80F18840C91CC1F5846109057D
:1019200001EBD0214005704770B44FF0004591EABB
:10193000030F44BF6B4000F04FB900BF841A71EB36
:10194000030604D26E40001BB141121973414FF4DB
:10195000001C1CEB410F34BF7CEB430684E00C0DF4
:10196000A4EB1356362E7DDC012E43DC45EAC3235F
:1019700043EA525312BFD20292025B08240545EAA1
:10198000C12141EA5051D2EBC020994125D407D161
:10199000B0FA80F610FA06F164D00020203608E094
:1019A000B1FA81F6B140C6F1200220FA02F21143E9
:1019B000B0404FEAF474B4EB465434F001064FEAF9
:1019C00074040AD8D6F50016760D04F00044F040F1
:1019D00061FA06F25040F1404840C00A40EA4150E6
:1019E00021F0004128BF5FEA500550F1000044EBB0
:1019F000D12137E045EAC323DB0A45EAC121C90A00
:101A0000B6F120050EDD42EA0242120CC5F12006B5
:101A100003FA06F6EB4042EA06056D42984161F191
:101A200000010DE062FA06F5F240554063FA06FC4B
:101A300082EA0C02F3405A406D42904161EB03018F
:101A400011F4801F05D1641E620502D06D00404173
:101A5000494121F48011430875F1004350F1000021
:101A600041EB045170BC70471CEB410F15D223F0C1
:101A7000004352EA43060BD04FEA4C0CBCEB410F3B
:101A800004D80C0D661E342EB7DDEBE7801A9941A1
:101A900050EA410608BF0021E4E708BF1CEB430FF2
:101AA00028BF6FF00001DDE780B5134800F0FEF8B5
:101AB0000FF24801016041608160C16001614161D4
:101AC00081610FF23C0242628162C1620163416343
:101AD0000FF2300282630FF23402C2630164416488
:101AE00001BD10B5044800F0E1F80446206808B9CB
:101AF000FFF7DAFF204610BD0000002000000000C4
:101B00002E00000066616C736500000074727565DC
:101B10000000000091FBF2F303FB1211C0E9003159
:101B20007047000010B50446DFF8180000F0BEF85A
:101B300050F8240010BD80B5DFF8080000F0B6F8BA
:101B4000806902BD9000002030B430B90FF2480027
:101B5000D0E90045C2E900451BE00170012030BC1E
:101B6000704730B431B90FF23800D0E90045C3E90D
:101B700000450EE01AB930BC6FF00100704708B1A3
:101B80000A7802800978481E804130BCC043C00FEB
:101B90007047002030BC70470000000000000000CB
:101BA00000000000000000000749086808B100209C
:101BB00070470648C008C00008600549C908C90048
:101BC000091A0160704700BF541900207F1D0020D2
:101BD0007825002070470000841A71EB030603D2B9
:101BE000001BB141121973414FF4001C1CEB410F53
:101BF00034BF7CEB430443E00C0DA4EB1356352EAD
:101C000050DC45EAC323DB0A45EAC121C912B6F11B
:101C100020050DDD63FA05F6EB4086EA0305124266
:101C200018BF45F00105C01851F100010CD213E0B6
:101C300062FA06F5F2405540F3415A40B340F34092
:101C40005A408018594107D349085FEA30005FEADB
:101C5000350528BF45F0010501F58011420875F1F1
:101C6000004250F1000041EB045170BC4FF4001CE5
:101C70001CEB410F38BF70470020090D0905704764
:101C80001CEB410F10D252EA43060BD0BCEB410FC4
:101C900005D80C0DAB43661E342EB5DD02E0AB4318
:101CA0008018594170BC704770BC70477047000085
:101CB00000B585B036208DF8000000208DF80100B9
:101CC00000208DF8020001208DF8030000A800F02C
:101CD00038FE0121102000F05CFF41F65830ADF8CD
:101CE000080040F2FF30ADF804000020ADF80A0013
:101CF0000020ADF8060001A9DFF8780B00F06AFFBC
:101D00000121DFF8700B00F0C8FF0121DFF8640B40
:101D100000F0AAFF01220121DFF8580B00F0B2FF0A
:101D200005B000BD00B585B037208DF8000000205B
:101D30008DF8010000208DF8020001208DF80300CD
:101D400000A800F0FEFD0121202000F022FF41F656
:101D50005830ADF808000020ADF804000020ADF8C0
:101D60000A000020ADF8060001A9DFF80C0B00F016
:101D700031FF0121DFF8000B00F08FFF0121DFF8B8
:101D8000F80A00F071FF01220121DFF8EC0A00F0EF
:101D900079FF05B000BD80B50121082000F0EAFE02
:101DA0008020ADF8000002208DF8020004208DF89C
:101DB000030000A9DFF8C40A00F092FF01BD80B55E
:101DC0000121202000F0D6FE4FF46050ADF8000055
:101DD00002208DF8020010208DF8030000A9DFF822
:101DE000A00A00F07DFF00224FF40051DFF8900AB6
:101DF00001F01EF801224FF40061DFF8840A01F0BF
:101E000017F801BD002189B280B281420ED200BF15
:101E100000BF00BF00BF00BF00BF00BF00BF00BFCA
:101E200000BF00BF00BF00BF491CECE7704710B502
:101E300082B0022001F092FADFF8481A0870DFF849
:101E4000440A0078222807D0DFF83C0A02880221E1
:101E5000022001F00BFA43E0022001F08CFADFF8D7
:101E60002C1A0880DFF8240A0088002818D001F016
:101E700070FEDFF81C1A0091DFF8183ADFF80C1A30
:101E80000A880100022001F092FA002808D0DFF849
:101E9000FC090088083880B201F05DFE01F028FEE0
:101EA00001F06DFE00281BD047F23150DFF8E01939
:101EB000088001F06EFE040001F06EFEDFF8D0191C
:101EC0000091DFF8D039220092B20100022001F027
:101ED000D0FB002804D0012000F0C9FF01F052FE21
:101EE00013BD00002DE9F04F8DB0002001F036FA4F
:101EF000DFF890190870DFF88C09007800280AD004
:101F0000173819D0401E00F0AC84801E032840F220
:101F1000A88400F0A9BC50220121002001F0A6F9FC
:101F2000002807D0002001F00BFD002802D101207D
:101F300000F09DFF00F098BC4FF47A70FFF762FF4D
:101F4000002001F018FADFF8441908804FF6FF70FE
:101F5000DFF844190880DFF834090088DFF8381901
:101F60000988884210D0DFF824090088DFF8281992
:101F7000088042F21070FFF745FF002001F0FBF9E6
:101F8000DFF808190880E6E7DFF80C090088002868
:101F900000F06684002000900023DFF8F00802883B
:101FA000DFF8F818002001F002FA002800F05C8445
:101FB000DFF8EC18DFF8E40801F0EFFCDFF8E418D4
:101FC0000860DFF8E0080068002800F1FC80DFF816
:101FD000D818DFF8C80801F0E0FC0600DFF8CC18DC
:101FE000DFF8B80801F0D9FC0700DFF8C418DFF803
:101FF000AC0801F0D2FC8046DFF8B818DFF89C0886
:1020000001F0CBFC0690DFF8B018DFF8900801F083
:10201000C4FC0590DFF8A418DFF8800801F0BDFCCF
:102020000400002E45D409365FF00009B2465FF087
:10203000000B1FFA89F9B9F1100F3ADA1FFA8BFB7E
:10204000BBF1040F35DADFF854081FFA8AFA1AF8E0
:1020500000002E280FD0DFF844081FFA8AFA1AF879
:102060000000202807D0DFF834081FFA8AFA1AF88F
:1020700000000D2818D10020DFF820181FFA8AFA76
:102080000AF80100DFF81408301801F021FEDFF82B
:1020900030181FFA8BFB0BF801001BF1010B1FFA24
:1020A0008AFA1AF10100060019F101091AF1010A70
:1020B000BFE7002F13D40937B2A1DFF8E0073818C3
:1020C00001F06BFC06000020DFF8D0177054DFF839
:1020D000CC07381801F0FCFDDFF8AC170880B8F128
:1020E000000F16D418F10A08A6A1DFF8B00718EB04
:1020F000000001F052FC06000020DFF8A017705429
:10210000DFF8980718EB000001F0E2FDDFF8B417E4
:1021100008600698002817D406980A30069099A1FE
:10212000DFF87807069A101801F037FC0600002047
:10213000DFF868177054DFF864070699081801F093
:10214000C7FDDFF8841708800598002817D4059884
:102150000A3005908BA1DFF84407059A101801F0AA
:102160001CFC06000020DFF834177054DFF82C0741
:102170000599081801F0ACFDDFF850170880002C15
:1021800013D409347FA1DFF81407201801F005FCEF
:1021900006000020DFF804177054DFF8000720184D
:1021A00001F096FDDFF8281708800120DFF82417DA
:1021B0000870002001F09AFB012001F097FB02203B
:1021C00001F094FB50E3DFF81017DFF8D00601F0C0
:1021D000E4FBDFF808170860DFF800070068002854
:1021E00000F1CA825FF000095FF0000A1FFA89F966
:1021F00041F6A230814580F2B0821FFA8AFABAF520
:10220000FA6F01DB5FF0000A1FFA89F9DFF8D006E8
:1022100010F80900DFF884161FFA8AFA0AF801009C
:102220001FFA8AFA40F2CF708245C0F291820020F4
:10223000DFF868161FFA8AFA1AEB01014870DFF816
:10224000A416DFF8580601F0A8FB0600002E38D4CB
:10225000DFF86C06C0780490C1A00390DFF8600638
:1022600080780290BEA00190DFF85406407800907C
:10227000BBA3DFF84C060278DFF86C1607A801F064
:102280002BFD07A8FEF752FF050011360020310094
:1022900080B20F2815DA2A00D2B280B292B29042F0
:1022A00007D207AA80B2825CDFF8F03589B2CA543F
:1022B00004E02022DFF8E43589B2CA54401C491CEE
:1022C000E6E7DFF82816DFF8D40501F066FB060024
:1022D000002E26D4DFF8B0050288D2A107A801F0AD
:1022E000FBFC07A8FEF722FF050011360020310095
:1022F00080B2052815DA2A00D2B280B292B290429A
:1023000007D207AA80B2825CDFF8903589B2CA543E
:1023100004E02022DFF8843589B2CA54401C491CED
:10232000E6E7DFF8CC15DFF8740501F036FB8046F0
:10233000B8F1000F00F1F380BBA1DFF8600518EBE6
:10234000000001F02AFB0700002F00F1E880BF1C0D
:1023500018EB0707DFF86C050068B0F5165F13D0BF
:10236000B0F5615F32D0B0F5964F51D0B0F5164F51
:1023700070D0B0F5614F00F08F80B0F5E13F00F014
:10238000AD80CCE00D0000000020C0B206281CDAB1
:1023900000218846DFF85C15C0B2642202FB001100
:1023A00018F8011000290ED0DFF84815C0B26422D9
:1023B00002FB001118F80110DFF8E024B95418F1FD
:1023C00001087F1CE6E7401CDFE7A8E00020C0B260
:1023D00006281CDA00218846DFF81C15C0B26422EA
:1023E00002FB001118F8011000290ED0DFF80815C3
:1023F000C0B2642202FB001118F80110DFF89C241F
:10240000B95418F101087F1CE6E7401CDFE786E0BD
:102410000020C0B206281CDA00218846DFF8DC1450
:10242000C0B2642202FB001118F8011000290ED07E
:10243000DFF8C814C0B2642202FB001118F80110C2
:10244000DFF85824B95418F101087F1CE6E7401C56
:10245000DFE764E00020C0B206281CDA00218846CD
:10246000DFF89C14C0B2642202FB001118F80110BE
:1024700000290ED0DFF88814C0B2642202FB0011DC
:1024800018F80110DFF81424B95418F101087F1C62
:10249000E6E7401CDFE742E00020C0B206281CDA75
:1024A00000218846DFF85C14C0B2642202FB0011F0
:1024B00018F8011000290ED0DFF84814C0B26422C9
:1024C00002FB001118F80110DFF8D023B95418F1FD
:1024D00001087F1CE6E7401CDFE720E00020C0B2D7
:1024E00006281CDA00218846DFF81C14C0B26422DA
:1024F00002FB001118F8011000290ED0DFF80814B3
:10250000C0B2642202FB001118F80110DFF88C231E
:10251000B95418F101087F1CE6E7401CDFE7DFF83B
:10252000EC13DFF8780301F038FA8046B8F1000FB9
:1025300059D43DA1DFF8640318EB000001F02DFA37
:102540000700002F4FD4BF1C18EB0707DFF87803F4
:102550000088002806D0B0F5005F24D043E000BF1B
:102560002E0000000020C0B202281BDA002188469D
:10257000DFF89C13C0B2642202FB001118F80110AE
:1025800000290DD0DFF88813C0B2642202FB0011CD
:1025900018F80110C14AB95418F101087F1CE7E787
:1025A000401CE0E71FE00020C0B202281BDA002137
:1025B0008846DFF86013C0B2642202FB001118F8ED
:1025C000011000290DD0DFF84C13C0B2642202FBC9
:1025D000001118F80110B14AB95418F101087F1C14
:1025E000E7E7401CE0E7CC49AC4801F0D6F980466B
:1025F000B8F1000F76D40CA1A84818EB000001F048
:10260000CCF90700002F6DD4BF1C18EB0707AF48AB
:10261000008800280AD0B0F5806F45D0B0F5C06FB3
:1026200023D05FE0256400000D0A00000020C0B246
:10263000032819DA00218846B849C0B2642202FB97
:10264000001118F8011000290CD0B449C0B264225E
:1026500002FB001118F80110904AB95418F1010852
:102660007F1CE9E7401CE2E73CE00020C0B2032801
:1026700019DA00218846AA49C0B2642202FB00117F
:1026800018F8011000290CD0A549C0B2642202FB41
:10269000001118F80110814AB95418F101087F1C83
:1026A000E9E7401CE2E71DE00020C0B2032819DA88
:1026B000002188469B49C0B2642202FB001118F831
:1026C000011000290CD09749C0B2642202FB00110E
:1026D00018F80110714AB95418F101087F1CE9E794
:1026E000401CE2E790496D4801F057F90600002EC2
:1026F00023D4774802885EA107A801F0EDFA07A865
:10270000FEF714FD050011360020310080B20428C8
:1027100013DA2A00D2B280B292B2904206D207AA4D
:1027200080B2825C5D4B89B2CA5403E020225B4BCD
:1027300089B2CA54401C491CE8E7002000900023DD
:102740004FF4FA625549002000F093FF002804D0AE
:1027500019F101091AF1010A48E50020009000234F
:1027600040F232424D49002000F083FF00287BD028
:10277000002001F0D0F877E06C49484801F00DF9ED
:102780005649086055480068002866D4002043492F
:1027900008705FF000095FFA89F9B9F1020F0BDAEE
:1027A00063485FFA89F9642101FB09013B4801F0A4
:1027B000ADFA19F10109EEE73848FEF7B7FC002140
:1027C00000910023020092B23449002000F051FF32
:1027D000002849D05FF000095FF0000A1FFA89F96C
:1027E0004AF6284081452DDA1FFA8AFABAF5FA6FBF
:1027F00001DB5FF0000A1FFA89F94E4810F8090062
:1028000026491FFA8AFA0AF801001FFA8AFA40F2EA
:10281000CF70824511DB002020491FFA8AFA1AEB9B
:10282000010148700020009000234FF4FA621B4918
:10283000002000F01EFF002804D019F101091AF150
:10284000010ACBE700200090002348221349002012
:1028500000F00FFF002807D006E0002001F05BF831
:1028600002E0002001F042F80DB0BDE8F08F00005A
:10287000256400000010004000140040000C0140DE
:10288000001401406C1900205A1900206219002020
:10289000581900203C19002064190020180100205C
:1028A0001461000850190020C0600008CC600008C6
:1028B000D8600008E4600008F0600008FC600008D0
:1028C00040190020481900205C1900205E190020E2
:1028D000601900206D190020906000084C1900203C
:1028E00000E0020818600008A06000082C600008E2
:1028F00040600008444A00089C4C0008F44E000860
:102900004C510008A4530008FC550008546000080E
:102910008C5D0008545E0008686000085458000888
:1029200080590008AC5A00087C600008C85F0008A5
:10293000C45C0008000003081F4901431F4A1160DE
:10294000704770B4002300210F22C478002C20D0DF
:102950001A4C246814F4E064D4F5E064240A2300DB
:10296000D3F104042100DA4044788C4023008478B9
:10297000144023431B01124C05782B550124057884
:1029800015F01F05AC400F4D0678761145F826402E
:1029900009E00124057815F01F05AC400A4D0678C2
:1029A000761145F8264070BC7047084A0A40024339
:1029B000074B1A60704700000000FA050CED00E0BC
:1029C00000E400E000E100E080E100E080FFFF1FA4
:1029D00008ED00E0F0B500210022002300240025CE
:1029E000002600275FF0000CDFF8C4E1DEF800E00D
:1029F0001EF00C0E71468E46BEF1000F06D0BEF1E1
:102A0000040F08D0BEF1080F0AD062E0DFF8A8E199
:102A1000C0F800E061E0DFF8A4E1C0F800E05CE0AD
:102A2000DFF88CE1DEF800E01EF4701E7246DFF87D
:102A300080E1DEF800E01EF4803E7346920C0D2A21
:102A400001D0921C02E05FF0060E7246002B06D108
:102A5000DFF86CE10EFB02FEC0F800E038E0DFF8C2
:102A600054E1DEF800E01EF4803E7546DFF844E1F4
:102A7000DEF800E01EF00F0E1EF1010E7646002D6E
:102A800008D1DFF838E1BEFBF6FE02FB0EFEC0F80F
:102A900000E01DE0DFF81CE1DEF800E0CEF3031EED
:102AA0001EF1010E7746DFF80CE1DEF800E0CEF310
:102AB000032E1EF1020EF446DFF800E1BEFBF7FE26
:102AC0000CFB0EFEBEFBF6FE02FB0EFEC0F800E0A5
:102AD00003E0DFF8E4E0C0F800E0DFF8D4E0DEF87F
:102AE00000E01EF0F00E71460909DFF8D8E011F899
:102AF0000EE07446D0F800E03EFA04FEC0F804E0B0
:102B0000DFF8ACE0DEF800E01EF4E06E7146090A82
:102B1000DFF8B0E011F80EE07446D0F804E03EFAB9
:102B200004FEC0F808E0DFF888E0DEF800E01EF4FC
:102B3000605E7146C90ADFF88CE011F80EE0744659
:102B4000D0F804E03EFA04FEC0F80CE0DFF860E0E4
:102B5000DEF800E01EF4404E7146890BDFF868E0B5
:102B600011F80EE07446D0F80CE0BEFBF4FEC0F89D
:102B700010E0F0BDC9B2002905D0144A1268024322
:102B8000124B1A6004E0114A126882430F4B1A601C
:102B90007047C9B2002905D00D4A126802430C4B98
:102BA0001A6004E00A4A12688243094B1A607047AF
:102BB000041002402C10024000127A0040787D017F
:102BC00000093D00FC0000200C010020181002400C
:102BD0001C100240002203881A00DFF8DC30984203
:102BE00012D0DFF8EC3098420ED0B0F1804F0BD00D
:102BF000DFF8C830984207D0DFF8C430984203D0DD
:102C0000DFF8C030984204D14FF68F731A404B88DA
:102C10001A43DFF8B430984208D0DFF8B030984259
:102C200004D04FF6FF431A40CB881A4302808B88AA
:102C300083850B880385DFF8803098420FD0DFF85A
:102C4000903098420BD0DFF88C30984207D0DFF8F4
:102C50008830984203D0DFF88430984201D10B7A53
:102C60000386012383827047C9B2002904D00288F9
:102C700052F00102028004E002884FF6FE731A400F
:102C800002807047D2B2002A03D083890B4383812C
:102C900002E083898B4383817047C9B2002904D045
:102CA000028852F08002028004E002884FF67F73AF
:102CB0001A40028070470000002C014000040040D0
:102CC00000080040000C00400010004000140040CC
:102CD00000340140004001400044014000480140F0
:102CE000F0B500270022002300240025002691F8DB
:102CF00003C01CF00F0C674691F803C05FEACC6C70
:102D000003D591F802C05CEA070791F800C05FEABA
:102D10000C6C3AD0D0F800C065465FF0000C6346FA
:102D2000082B31D25FF0010C1CFA03FC6446B1F8A9
:102D300000C014EA0C0C6246A24223D15FEA830C65
:102D400064465FF00F0C1CFA04FC6646B54317FAA4
:102D500004FC5CEA050591F803C0BCF1280F06D11C
:102D60005FF0010C1CFA03FCC0F814C00AE091F8F3
:102D700003C0BCF1480F05D15FF0010C1CFA03FC45
:102D8000C0F810C05B1CCBE70560B1F800C0BCF117
:102D9000FF0F3FDDD0F804C065465FF0000C6346CE
:102DA000082B36D25FF0010C13F1080E1CFA0EFC52
:102DB0006446B1F800C014EA0C0C6246A24226D167
:102DC0005FEA830C64465FF00F0C1CFA04FC664655
:102DD000B54317FA04FC5CEA050591F803C0BCF1A1
:102DE000280F07D15FF0010C13F1080E1CFA0EFC3E
:102DF000C0F814C091F803C0BCF1480F07D15FF0D0
:102E0000010C13F1080E1CFA0EFCC0F810C05B1C7C
:102E1000C6E74560F0BD02000020936889B20B420E
:102E200002D00123180001E000231800C0B270474F
:102E3000D2B2002A02D089B2016101E089B24161B7
:102E400070470000002189B280B281420ED200BFDB
:102E500000BF00BF00BF00BF00BF00BF00BF00BF7A
:102E600000BF00BF00BF00BF491CECE7704738B58A
:102E700004000025ADB2A4B2A54205D24FF47A7089
:102E8000FFF7E0FF6D1CF5E731BD00B587B001210C
:102E90004420FFF76FFE01214FF48050FFF76AFED8
:102EA00001210120FFF766FE8020ADF8000003201D
:102EB0008DF8020010208DF8030000A9DFF81C0A2D
:102EC000FFF70EFF00228021DFF8100AFFF7B0FFA6
:102ED0000120FFF7CCFF01228021DFF8000AFFF775
:102EE000A7FF0120FFF7C3FF2020ADF8000003205B
:102EF0008DF8020018208DF8030000A9DFF8E00922
:102F0000FFF7EEFE4020ADF8000000A9DFF8D00981
:102F1000FFF7E6FE8020ADF8000000A9DFF8C00949
:102F2000FFF7DEFE1020ADF8000010208DF8030042
:102F300000A9DFF8AC09FFF7D3FE01221021DFF86A
:102F4000A009FFF775FF0020ADF804004FF4827070
:102F5000ADF806000020ADF808000020ADF80A002A
:102F60000020ADF80C000020ADF80E001020ADF8E8
:102F700010000020ADF812000720ADF8140001A9E0
:102F8000DFF8600900F0D0FE0121DFF8580900F0F9
:102F9000FDFE0121DFF84C0900F0E6FE07B000BDA0
:102FA00038B504000D0000221021DFF83409FFF7C6
:102FB0003FFF0220FFF746FF0221DFF8280900F05B
:102FC000F3FE0028F8D0F021DFF8180900F0DAFE4F
:102FD0000221DFF8100900F0E7FE0028F8D0A4B2C3
:102FE000210ADFF8000900F0CDFE0221DFF8F40825
:102FF00000F0DAFE0028F8D0E1B2DFF8E80800F0CF
:10300000C1FE0221DFF8DC0800F0CEFE0028F8D077
:10301000EDB2290089B2DFF8CC0800F0B3FE02213E
:10302000DFF8C00800F0C0FE0028F8D00220FFF74B
:1030300009FF01221021DFF8A808FFF7F9FE31BDD2
:1030400038B5040000221021DFF89408FFF7F0FEE5
:10305000DFF8900800F098FE0221DFF8880800F001
:10306000A3FE0028F8D00F21DFF8780800F08AFED0
:103070000121DFF8700800F097FE0028F8D0DFF893
:10308000640800F081FE0221DFF8580800F08CFE91
:103090000028F8D0A4B2210ADFF8480800F072FE38
:1030A0000121DFF8400800F07FFE0028F8D0DFF8AB
:1030B000340800F069FE0221DFF8280800F074FEF1
:1030C0000028F8D0E1B2DFF81C0800F05BFE012117
:1030D000DFF8100800F068FE0028F8D0DFF80408D8
:1030E00000F052FE0221DFF8FC0700F05DFE002830
:1030F000F8D00021DFF8EC0700F044FE0121DFF8F2
:10310000E40700F051FE0028F8D0DFF8D80700F0FF
:103110003BFE050001221021DFF8C407FFF788FEFF
:103120002800C0B232BD10B5040080210020FFF796
:1031300037FF0120FFF79BFE2078DFF8AC170870FF
:103140006078DFF8A4174870A078DFF89C178870C3
:10315000E078DFF89417C8702079DFF88C170871D1
:103160006079DFF884174871A079DFF87C178871DF
:10317000E079DFF87417C871207ADFF86C170872ED
:10318000607ADFF864174872A07ADFF85C178872FB
:10319000E07ADFF85417C872207BDFF84C17087309
:1031A000607BDFF844174873A07BDFF83C17887317
:1031B000E07BDFF83417C873DFF82C07017B0120B0
:1031C000FFF7EEFEDFF82007417B0220FFF7E8FE65
:1031D000DFF81407817B0320FFF7E2FEDFF8080722
:1031E000C17B0420FFF7DCFE0120FFF740FEDFF883
:1031F000F806017A0520FFF7D3FEDFF8EC06417AE6
:103200000620FFF7CDFEDFF8E006817A0720FFF702
:10321000C7FEDFF8D406C17A0820FFF7C1FE0120FF
:10322000FFF725FEDFF8C00601790F20FFF7B8FE93
:10323000DFF8B40641791020FFF7B2FEDFF8A806E8
:1032400081791120FFF7ACFEDFF89C06C1791220CE
:10325000FFF7A6FE0120FFF70AFE55211A20FFF70F
:103260009FFE55211B20FFF79BFE10BD2DE9F0416D
:1032700004000D0016000027E4B24FF4807000FB3C
:1032800004F000F2034080B2FFF7DAFE002803D119
:103290002000C0B200F02AFB2900C9B2E4B24FF40A
:1032A000807000FB04F010F5806080B2FFF778FEBC
:1032B000B6B2310AC9B2E4B24FF4807000FB04F038
:1032C00000F2044080B2FFF76BFE3100C9B2E4B2F5
:1032D0004FF4807000FB04F000F2054080B2FFF76D
:1032E0005FFE0121E4B24FF4807000FB04F000F2B5
:1032F000014080B2FFF754FEE4B24FF4807000FB4F
:1033000004F000F2014080B2FFF79AFE0028F3D1EA
:10331000E4B24FF4807000FB04F000F2034080B28E
:10332000FFF78EFE8046EDB2012D04D15FFA88F8DA
:10333000B8F1130F07D0EDB2022D07D15FFA88F86C
:10334000B8F1220F02D10120070003E02000C0B233
:1033500000F0CCFA3800C0B2BDE8F08110B504002E
:10336000E4B24FF4807000FB04F000F2034080B23E
:10337000FFF766FE10BD38B50400E4B24FF480706C
:1033800000FB04F000F2264080B2FFF759FE050072
:10339000EDB2E4B24FF4807000FB04F000F227407D
:1033A00080B2FFF74DFE10EB052080B232BD2DE953
:1033B000F54F85B00C001D005FF008099DF8140062
:1033C0004FF4006101FB00FA9DF814004FF4807186
:1033D0004843ADF80000BDF81800002801D10020D6
:1033E00044E1BDF81800B0F5006F03DD40F2FE7057
:1033F000ADF81800BDF818008046BDF8000010F5C3
:10340000856080B2FFF71CFEADF80C00BDF80CB073
:10341000BDF8000000F2294080B2FFF711FE10EB6A
:103420000B200600DFF8C0049DF81410085C022889
:1034300040F08680B6B27005400D1FFA89F919EB8D
:103440000000B0F5006F3FDD7005400DD0F5006065
:10345000ADF802005FF0000BBDF802001FFA8BFB15
:10346000834513D27005400D10EB0A0010F5C040E3
:103470000700380080B2FFF7E3FD01A91FFA8BFBBC
:103480000BF80100761C1BF1010BE5E7002006009C
:10349000BDF802B01FFA8BFB1FFA89F9CB452FD27A
:1034A0007005400D10EB0A0010F5C0400700380011
:1034B00080B2FFF7C5FD01A91FFA8BFB0BF80100D5
:1034C000761C1BF1010BE5E75FF0000B1FFA8BFB8D
:1034D0001FFA89F9CB4513D27005400D10EB0A0095
:1034E00010F5C0400700380080B2FFF7A9FD01A920
:1034F0001FFA8BFB0BF80100761C1BF1010BE5E7B3
:103500009DF8040028709DF8050068709DF806007D
:10351000A8709DF80700E8709DF808000002109957
:103520000880109800889DF80910081810990880E4
:103530009DF80A00000280469DF80B0010EB080879
:10354000B6B27005400D1FFA88F818EB0000B0F510
:10355000006F39DD7005400DD0F50060ADF8020058
:103560005FF0000BBDF802001FFA8BFB834510D201
:103570007005400D10EB0A0010F5C0400700380040
:1035800080B2FFF75DFD2070641C761C1BF1010BFF
:10359000E8E700200600BDF802B01FFA8BFB1FFA17
:1035A00088F8C34529D27005400D10EB0A0010F5CC
:1035B000C0400700380080B2FFF742FD2070641C55
:1035C000761C1BF1010BE8E75FF0000B1FFA8BFB89
:1035D0001FFA88F8C34510D27005400D10EB0A00A1
:1035E00010F5C0400700380080B2FFF729FD2070B9
:1035F000641C761C1BF1010BE8E700202070BDF86D
:10360000000010F5856080B2FFF71AFDADF80C00E0
:10361000BDF80CB0BDF8000000F2294080B2FFF701
:103620000FFD10EB0B20060018EB09008619B6B24F
:10363000310AC9B2BDF8000010F5856080B2FFF70D
:10364000AFFC3100C9B2BDF8000000F2294080B2E1
:10365000FFF7A6FC4021BDF8000000F2014080B257
:10366000FFF79EFC0520FFF7EDFB012007B0BDE84A
:10367000F08F2DE9FC4F83B004000D00E4B24FF44D
:10368000006000FB04F0ADF80200E4B24FF480707B
:1036900000FB04F9BDF80C00002801D100201AE15C
:1036A000BDF80C00ADF8000019F5846080B2FFF79A
:1036B000C7FC80461FFA88F809F2214080B2FFF764
:1036C000BFFC10EB0820804600208246BDF80000B9
:1036D0001FFA88F880452AD20120FFF7C8FB19F5A8
:1036E000846080B2FFF7ACFC80461FFA88F809F2CC
:1036F000214080B2FFF7A4FC10EB08208046504622
:1037000010F1010A80B242F211718842DEDB764884
:10371000E4B2205C012804D12000C0B200F0FBF824
:1037200003E02000C0B200F0E1F80020D3E06E48D2
:10373000E4B2205C02282DD10498017809F20C40F3
:1037400080B2FFF72DFC0498417809F20D4080B259
:10375000FFF726FC0498817809F20E4080B2FFF74B
:103760001FFC0498C17809F20F4080B2FFF718FCE3
:103770000E98008880B2010AC9B219F5826080B241
:10378000FFF70EFC0E980188C9B209F2114080B211
:10379000FFF706FC09F2244080B2FFF751FCADF8B8
:1037A0000400BDF804B009F2254080B2FFF748FCE0
:1037B00010EB0B200600B6B27005400DBDF80010EE
:1037C0000818B0F5006F3BDD7005400DD0F50060C6
:1037D000ADF806005FF0000BBDF806001FFA8BFB8A
:1037E000834511D2BDF802007105490D081810F586
:1037F000804007002978380080B2FFF7D1FB6D1CAC
:10380000761C1BF1010BE7E700200600BDF806B0AF
:10381000BDF800001FFA8BFB83452BD2BDF80200D8
:103820007105490D081810F5804007002978380007
:1038300080B2FFF7B5FB6D1C761C1BF1010BE7E7AF
:103840005FF0000BBDF800001FFA8BFB834511D21F
:10385000BDF802007105490D081810F580400700F9
:103860002978380080B2FFF79BFB6D1C761C1BF19A
:10387000010BE7E709F2244080B2FFF7E1FBADF866
:103880000400BDF804B009F2254080B2FFF7D8FB70
:1038900010EB0B200600BDF800008619B6B2310A05
:1038A000C9B209F2244080B2FFF77AFB3100C9B2F5
:1038B00009F2254080B2FFF773FB202109F2014095
:1038C00080B2FFF76DFB09F2014080B2FFF7B8FB51
:1038D0000028F8D1012005B0BDE8F08F00180140A4
:1038E00000080140003001401819002038B50400DC
:1038F000E4B24FF4807000FB04F5102105F20140A2
:1039000080B2FFF74DFB05F2014080B2FFF798FB54
:103910000028F8D131BD38B50400E4B24FF480700E
:1039200000FB04F5082105F2014080B2FFF738FBE7
:1039300005F2014080B2FFF783FB0028F8D131BDCA
:1039400070B504000025E4B24FF4807000FB04F66B
:1039500006F2034080B2FFF773FB13281AD102214D
:1039600006F2014080B2FFF71BFB06F2014080B275
:10397000FFF766FB0028F8D106F2034080B2FFF79C
:103980005FFB142802D10120050003E02000C0B233
:10399000FFF7ACFF2800C0B270BDF8B504000D0001
:1039A0002800FDF7C3FB070000200600B6B2305D1B
:1039B00000280DD0BFB23A002900B6B2301900F08D
:1039C000FFF9002802D1B6B2300003E0761CEDE723
:1039D0005FF0FF30F2BD000010B586B00400012199
:1039E0003020FFF7C7F801215FF40020FFF7D1F87E
:1039F00001210120FFF7BEF84FF40060ADF8000090
:103A000004208DF8030000A9A448FFF769F94FF4DA
:103A10008060ADF8000003208DF8020018208DF8BA
:103A2000030000A99D48FFF75BF90120ADF80000F5
:103A300003208DF8020010208DF8030000A998489B
:103A4000FFF74EF9002201219548FFF7F1F92068B0
:103A500094490860A08893498880E0889149C8808B
:103A60002089904908814FF4E060FEF765FF34201B
:103A70008DF8040000208DF8060001208DF8070065
:103A800001A8FEF75EFF8748006802900020ADF8AD
:103A90000C0084488088ADF80E008248C088ADF8DC
:103AA00010000020ADF814000C20ADF8120002A99F
:103AB0007D4800F09BF9012240F225517A4800F040
:103AC00015FA002240F22771774800F00FFA002221
:103AD00040F22661744800F009FA0121724800F0B2
:103AE000F7F94FF6FF70401E0028FCD106B010BD5C
:103AF00080B56E48008800282AD000206C490880D4
:103B000000206C490870012201216548FFF790F9F7
:103B100040F22771644800F01CFA002812D1644872
:103B20000088411C624A1180634980B2415C89B2BD
:103B30005D4800F006FA012240F227715A4800F071
:103B4000D5F905E0012240F22771574800F0CEF97F
:103B500001BD59487047554908807047574800785B
:103B600000280BD055480078401E5449087053482F
:103B70000078002802D101204E4908707047504853
:103B80000078704700204E49087000204D49088099
:103B900070474C48008870474B4870474B48007846
:103BA00000280BD049480078401E48490870474813
:103BB0000078002802D1012041490870704710B5F3
:103BC00040F22551384800F0C4F9002822D03F487F
:103BD0000078002805D100203949087000203949B3
:103BE000088038480488601C364908802E4800F058
:103BF000ACF93549A4B2605432480088B0F5006F82
:103C000002D100202F490880264800890A21484314
:103C10002E49087040F22771234800F09AF90028D5
:103C200023D0234800882149098888421DD2204892
:103C30000088411C1E4A11801F4980B2415C89B234
:103C4000194800F07EF91A48008818490988884206
:103C50000BD1002240F22771134800F047F90122EE
:103C600040F22661104800F041F940F226610E480A
:103C700000F06FF9002810D0002201210848FFF75A
:103C8000D7F8002240F22661074800F02FF9002003
:103C90000649088000200649088010BD0010014038
:103CA0000014014028190020004C00406619002033
:103CB000681900201401002018110020701900203C
:103CC000721900206A1900201809002071190020BB
:103CD0000A22002100F016BA0CB41CB5044604A850
:103CE00001900A46009401AB00A9074878441830B7
:103CF000FCF72EFA009A0021117000285CBF009892
:103D0000001B16BC5DF80CFB5BD4FFFF024600E015
:103D1000521C1378002BFBD111F8013B137012F8E1
:103D2000013B002BF8D1704710B4002203881A0021
:103D300012F441520B884C8823438C882343CC884F
:103D400023430C8923434C8923438C892343CC8907
:103D500023431A430280838B4FF2FF7423408383F3
:103D60000B8A038210BC7047C9B2002904D00288B4
:103D700052F04002028004E002884FF6BF731A40FE
:103D8000028070478181704780897047C9B20029DD
:103D900004D0828852F00402828004E082884FF6C8
:103DA000FB731A40828070470200002013890B4287
:103DB00002D00123180001E000231800C0B27047B0
:103DC00001E0491C521E72B10B7890F800C09C456E
:103DD00005D002D24FF0FF3070470120704710F835
:103DE000013B002BEDD10020704700002DE9F0478A
:103DF00086B004000D00002600275FF000085FF089
:103E000000095FF0000AA8890028A246208A06005F
:103E10004CF6FF700640E88806432682A08906001B
:103E20004EF6F3100640A88829890843698908439B
:103E30000643A681A08A06004FF6FF400640A889E7
:103E40000643A68200A8FEF7C5FD2048824502D1A0
:103E50000398070001E002980700A089000408D534
:103E6000192000FB07F029684900B0FBF1F08046FB
:103E700007E0192000FB07F029688900B0FBF1F08A
:103E800080466420B8FBF0F0000106003009642190
:103E900001FB10808146A089000409D55FEAC900B2
:103EA00032306421B0FBF1F010F00700064308E067
:103EB0005FEA091032306421B0FBF1F010F00F001E
:103EC0000643268106B0BDE8F087000000380140B7
:103ED000C9B2002904D0828952F40052828104E0E0
:103EE00082894DF6FF731A4082817047F0B4002337
:103EF00000240025002689B240F66A17B942060060
:103F00000F00FFB27F09FFB23B0089B211F01F071B
:103F10003C000127A7403D00012B01D10C3604E0F5
:103F2000022B01D1103600E01436D2B2002A03D0A1
:103F300037682F43376002E03768AF433760F0BC23
:103F40007047CA05D20D828070478088C005C00DB9
:103F5000704770B40200002300250024002089B2BD
:103F600040F66A16B1420E00F6B27609F6B2340097
:103F700089B211F01F063500012616FA05F5012C4D
:103F800002D19689354006E0022C02D1168A3540CE
:103F900001E0968A354089B20E0AB6B23300012696
:103FA00016FA03F316883340002D04D0002B02D0FC
:103FB0000126300001E000263000C0B270BC70471E
:103FC0002DE9F04F85B004461E000D4690461CBFFB
:103FD00000203060A14601E009F1010999F80000D4
:103FE00000F0BAF80028F7D199F800002D2816BF84
:103FF0002B2819F8017B2B27B8F1000F55D4B8F105
:10400000010F52D0B8F1250F4FDAB8F1010F0DDBD7
:10401000B8F1100F04BF99F80000302802BF99F8DA
:10402000010040F02000782814D10EE099F800003B
:10403000302818BF4FF00A080CD199F8010040F061
:104040002000782804D14FF0100809F1020901E09E
:104050004FF00808CDF8109001E009F1010999F836
:1040600000003028F9D00FF2A00B4FF0000ACDF875
:104070000C908DF808B00AE09DF80810CDF804A067
:10408000401AC0B2009008FB0A0A09F1010999F828
:10409000000000F06BF8014642465846FDF766F80E
:1040A0000028E9D10498484503D105B12C600020CF
:1040B00025E00FF27C01039818F80110A9EB00002D
:1040C000401A14D4012808DA0098BAEB000004D38F
:1040D0000199B0FBF8F0884209D000F051F8222194
:1040E00001600EB1012030604FF0FF3A03E02D2F48
:1040F00008BFCAF1000A0DB1C5F80090504605B0DE
:10410000BDE8F08F00235BE730313233343536378A
:1041100038396162636465666768696A6B6C6D6E85
:104120006F707172737475767778797A0000000019
:1041300000002115110E0D0C0B0B0A0A09090909C3
:1041400009080808080808080707070707070707F6
:10415000070707070700000010B504460120FDF718
:10416000E1FC2046BDE8104000F010B810B5044650
:104170000120FDF7D7FC2046BDE8104000F010B844
:104180000148FDF793BD000010010020A0F10901D6
:10419000052901D3202801D1012070470020704754
:1041A000A0F141011A2938BF2030704710B440B245
:1041B000002809D50A01DFF8B43440B210F00F042A
:1041C000E31803F8042C04E00A01DFF8A43440B239
:1041D000C25410BC704710B50400B4F1807F01D305
:1041E000012013E02002000A401EDFF88814086056
:1041F0000F215FF0FF30FFF7D9FF0020DFF87814C0
:1042000008600720DFF874140860002010BD00B5B6
:104210008DB000F05FFA01217D20FEF7ABFC07A80E
:10422000FEF7D8FB07986421B0FBF1F0FFF7D3FF4E
:10423000002800D0FEE700215FF00060FEF7B5FB2C
:10424000FDF7BDFD4FF47A70FEF711FEDFF8300484
:104250000078DFF830140870DFF82C040078DFF8FD
:1042600024144870DFF824040078DFF818148870EC
:10427000DFF81C040078DFF80C14C870DFF80404C1
:104280000078FF280ED1DFF8FC034078FF2809D121
:10429000DFF8F0038078FF2804D1DFF8E803C07866
:1042A000FF2813D0DFF8DC030078002837D1DFF8CF
:1042B000D4034078002832D1DFF8C8038078002882
:1042C0002DD1DFF8C003C078002828D1C020DFF846
:1042D000B4130870A820DFF8AC1348700120DFF891
:1042E000A41388700A20DFF89C13C870DFF89403C9
:1042F0000078DFF89013497810EB0120DFF8841381
:10430000897810EB0140DFF87C13C97810EB01606D
:10431000DFF8801308600120DFF87C130870DFF8F5
:104320007C030088DFF878130880DFF874030088C6
:104330004FF6FF71884208D147F23150DFF8601321
:1043400008800120DFF850130870DFF85803006878
:10435000DFF854130860DFF850030068B0F5165F0B
:1043600024D0DFF844030068B0F5615F1ED0DFF8A9
:1043700038030068B0F5964F18D0DFF82C030068BA
:10438000B0F5164F12D0DFF820030068B0F5614F8A
:104390000CD0DFF814030068B0F5E13F06D04FF40D
:1043A0001640C14908600120BB490870BF48008819
:1043B000BF490880BE48008800280BD0BC48008850
:1043C000B0F5005F06D04FF40050B94908800120D5
:1043D000B1490870B7480088B7490880B6480088D6
:1043E00000280FD0B4480088B0F5806F0AD0B248DA
:1043F0000088B0F5C06F05D00020AF4908800120CB
:10440000A5490870AD480088AD490880AC480088CF
:10441000B0F57A7F05DD3220A949088001209E4948
:1044200008709D480078002827D000209A4908701D
:1044300000F022FA72B6924800F029FA9548016815
:104440008F4800F053FA96480188944800F08EFA9D
:1044500095480168934800F049FA954801889348C7
:1044600000F084FA94480188924800F07FFA94485A
:104470000188924800F07AFA62B6FDF753FCFDF726
:1044800017FCFEF702FD01208DF8000001208DF8D9
:10449000010002208DF802007A4800788DF80400AF
:1044A000784840788DF80500764880788DF80600C9
:1044B0007448C0788DF80700FF208DF80800FF20B1
:1044C0008DF80900FF208DF80A0000208DF80B0000
:1044D000C0208DF80C00A8208DF80D000A208DF862
:1044E0000E0001208DF80F0000A8FEF71CFE6E489C
:1044F000006804906E480088ADF814006E4800888B
:10450000ADF816006E480088ADF8180004A8FFF753
:1045100063FAFDF740FC01224FF400516948FEF7B1
:1045200087FC69480078002812D180216748FEF78F
:1045300072FC01282FD10120634908700A206449C8
:10454000087000224FF400515E48FEF771FC22E033
:104550005F48007800281ED180215C48FEF75BFC94
:10456000002818D101204C49087001224FF4005155
:104570005448FEF75DFC4FF47A70FEF778FCC020DB
:1045800040490870A8203F49487001203D49887083
:104590000A203C49C87040480078002861D00020BB
:1045A0003D49087000204849087000F065F972B66E
:1045B000334800F06CF9334800783249497810EB01
:1045C00001203049897810EB01402E49C97810EB61
:1045D0000160304908602F480168294800F086F9D9
:1045E0002F4801882D4800F0C1F92F4801682D4857
:1045F00000F07CF92E4801882C4800F0B7F92E48CD
:1046000001882C4800F0B2F92D4801882B4800F0B1
:10461000ADF962B61A4800781A4908701A4800784D
:104620001849487019480078164988701848007869
:104630001449C87019480088194908801948006849
:1046400019490860194800881949088019480088E4
:1046500019490880194800881949088000F0EAF9CA
:10466000FEE7FDF7E4FBFDF73DFC5AE718ED00E03F
:1046700000E400E014E000E018E000E010E000E0FA
:1046800000F803084019002001F8030802F80308A5
:1046900003F80308441900206D19002004F80308EA
:1046A0005A19002006F80308481900200AF80308E0
:1046B0005C1900200CF803085E1900200EF80308AE
:1046C00060190020001401406E190020000C014008
:1046D0006F19002080B55F48006850F001005D4907
:1046E00008605D4800685D4908405B4908605948BA
:1046F00000685B490840574908605648006830F434
:104700008020544908605448006830F4FE00524943
:1047100008605048006830F0A0504E4908605FF4CF
:104720007F005049086000204F49086000F005F8FC
:104730005FF000604D49086001BD80B500F001F8F0
:1047400001BD82B000200190002000904148006827
:1047500050F480303F4908603E48006810F4003053
:1047600000900198401C01900098002803D1019806
:10477000B0F5A06FF0D137480068800302D5012062
:10478000009001E000200090009801285FD1384897
:10479000006850F01000364908603548006880080D
:1047A0008000334908603248006850F00200304908
:1047B0000860294800682849086027480068264999
:1047C00008602548006850F4806023490860264846
:1047D000006828490840244908602348006840F4DC
:1047E000833050F04400204908601A48006850F0B7
:1047F000806018490860174800680001FBD516481A
:10480000006830F47C10144908601348006850F4C4
:10481000E810114908600F48006850F080700D4999
:1048200008600C4800688001FBD50B4800688008D0
:104830008000094908600848006850F002000649F5
:1048400008600548006810F00C000828F9D102B093
:104850007047000000100240041002400000FFF00A
:10486000FFFFF6FE081002402C10024008ED00E0A9
:104870000020024000F0FEFFDFF87001DFF8701149
:104880000860DFF87001DFF868110860704738B51C
:10489000040004255FF4302000F0B4F80500EDB208
:1048A000042D20D1DFF85001006850F00200DFF83D
:1048B00048110860DFF844010460DFF83C0100683B
:1048C00050F04000DFF8301108605FF4302000F055
:1048D00099F80500DFF82001006841F6FD710840F5
:1048E000DFF8141108602800C0B232BD70B582B084
:1048F00004000D000426002000904FF4005000F04A
:1049000081F80600F6B2042E2DD1DFF8EC00006825
:1049100050F00100DFF8E010086025804FF40050EF
:1049200000F070F80600F6B2042E13D1A01C00901F
:10493000280C009908804FF4005000F063F806003E
:10494000DFF8B400006841F6FE710840DFF8A810F7
:10495000086008E0DFF8A000006841F6FE7108403A
:10496000DFF8941008603000C0B276BD70B5040066
:104970000D0004264FF4005000F044F80600F6B293
:10498000042E16D1DFF87000006850F00100DFF847
:104990006810086025804FF4005000F033F80600DE
:1049A000DFF85400006841F6FE710840DFF8481057
:1049B00008603000C0B270BD042011490968C90701
:1049C00002D5012108000FE00D490968490702D509
:1049D0000221080008E00A490968C90602D5032136
:1049E000080001E004210800C0B2704723016745B8
:1049F00004200240AB89EFCD102002401420024079
:104A00000C20024038B504000425FFF7D5FF05004F
:104A1000EDB2012D06D1002C04D0FFF7CDFF05002B
:104A2000641EF5E7002C01D1052005002800C0B266
:104A300032BD00004CF6CC400149086070470000D0
:104A4000003000403C6F7074696F6E2073656C6558
:104A5000637465642076616C75653D22393630304B
:104A6000223E393630303C2F6F7074696F6E3E0DC8
:104A70000A0000000000000000000000000000002C
:104A80000000000000000000000000000000000026
:104A90000000000000000000000000000000000016
:104AA00000000000000000003C6F7074696F6E2011
:104AB00076616C75653D223134343030223E3134BC
:104AC0003430303C2F6F7074696F6E3E0D0A0000F9
:104AD00000000000000000000000000000000000D6
:104AE00000000000000000000000000000000000C6
:104AF00000000000000000000000000000000000B6
:104B00000000000000000000000000003C6F707416
:104B1000696F6E2076616C75653D223139323030B7
:104B2000223E31393230303C2F6F7074696F6E3EE7
:104B30000D0A00000000000000000000000000005E
:104B40000000000000000000000000000000000065
:104B50000000000000000000000000000000000055
:104B60000000000000000000000000000000000045
:104B70003C6F7074696F6E2076616C75653D223391
:104B800038343030223E33383430303C2F6F70743C
:104B9000696F6E3E0D0A000000000000000000007A
:104BA0000000000000000000000000000000000005
:104BB00000000000000000000000000000000000F5
:104BC00000000000000000000000000000000000E5
:104BD000000000003C6F7074696F6E2076616C7528
:104BE000653D223537363030223E35373630303C61
:104BF0002F6F7074696F6E3E0D0A00000000000098
:104C000000000000000000000000000000000000A4
:104C10000000000000000000000000000000000094
:104C20000000000000000000000000000000000084
:104C300000000000000000003C6F7074696F6E207F
:104C400076616C75653D22313135323030223E312E
:104C500031353230303C2F6F7074696F6E3E0D0A03
:104C60000000000000000000000000000000000044
:104C70000000000000000000000000000000000034
:104C80000000000000000000000000000000000024
:104C90000000000000000000000000003C6F707485
:104CA000696F6E2076616C75653D22393630302231
:104CB0003E393630303C2F6F7074696F6E3E0D0A8E
:104CC00000000000000000000000000000000000E4
:104CD00000000000000000000000000000000000D4
:104CE00000000000000000000000000000000000C4
:104CF00000000000000000000000000000000000B4
:104D00003C6F7074696F6E2073656C656374656465
:104D10002076616C75653D223134343030223E316D
:104D2000343430303C2F6F7074696F6E3E0D0A0062
:104D30000000000000000000000000000000000073
:104D40000000000000000000000000000000000063
:104D50000000000000000000000000000000000053
:104D6000000000003C6F7074696F6E2076616C7596
:104D7000653D223139323030223E31393230303CDB
:104D80002F6F7074696F6E3E0D0A00000000000006
:104D90000000000000000000000000000000000013
:104DA0000000000000000000000000000000000003
:104DB00000000000000000000000000000000000F3
:104DC00000000000000000003C6F7074696F6E20EE
:104DD00076616C75653D223338343030223E33388D
:104DE0003430303C2F6F7074696F6E3E0D0A0000D6
:104DF00000000000000000000000000000000000B3
:104E000000000000000000000000000000000000A2
:104E10000000000000000000000000000000000092
:104E20000000000000000000000000003C6F7074F3
:104E3000696F6E2076616C75653D2235373630308E
:104E4000223E35373630303C2F6F7074696F6E3EBE
:104E50000D0A00000000000000000000000000003B
:104E60000000000000000000000000000000000042
:104E70000000000000000000000000000000000032
:104E80000000000000000000000000000000000022
:104E90003C6F7074696F6E2076616C75653D223170
:104EA0003135323030223E3131353230303C2F6FA7
:104EB0007074696F6E3E0D0A000000000000000073
:104EC00000000000000000000000000000000000E2
:104ED00000000000000000000000000000000000D2
:104EE00000000000000000000000000000000000C2
:104EF000000000003C6F7074696F6E2076616C7505
:104F0000653D2239363030223E393630303C2F6F05
:104F10007074696F6E3E0D0A000000000000000012
:104F20000000000000000000000000000000000081
:104F30000000000000000000000000000000000071
:104F40000000000000000000000000000000000061
:104F500000000000000000003C6F7074696F6E205C
:104F600076616C75653D223134343030223E313407
:104F70003430303C2F6F7074696F6E3E0D0A000044
:104F80000000000000000000000000000000000021
:104F90000000000000000000000000000000000011
:104FA0000000000000000000000000000000000001
:104FB0000000000000000000000000003C6F707462
:104FC000696F6E2073656C65637465642076616CCF
:104FD00075653D223139323030223E313932303040
:104FE0003C2F6F7074696F6E3E0D0A000000000068
:104FF00000000000000000000000000000000000B1
:1050000000000000000000000000000000000000A0
:105010000000000000000000000000000000000090
:105020003C6F7074696F6E2076616C75653D2233DC
:1050300038343030223E33383430303C2F6F707487
:10504000696F6E3E0D0A00000000000000000000C5
:105050000000000000000000000000000000000050
:105060000000000000000000000000000000000040
:105070000000000000000000000000000000000030
:10508000000000003C6F7074696F6E2076616C7573
:10509000653D223537363030223E35373630303CAC
:1050A0002F6F7074696F6E3E0D0A000000000000E3
:1050B00000000000000000000000000000000000F0
:1050C00000000000000000000000000000000000E0
:1050D00000000000000000000000000000000000D0
:1050E00000000000000000003C6F7074696F6E20CB
:1050F00076616C75653D22313135323030223E317A
:1051000031353230303C2F6F7074696F6E3E0D0A4E
:10511000000000000000000000000000000000008F
:10512000000000000000000000000000000000007F
:10513000000000000000000000000000000000006F
:105140000000000000000000000000003C6F7074D0
:10515000696F6E2076616C75653D2239363030227C
:105160003E393630303C2F6F7074696F6E3E0D0AD9
:10517000000000000000000000000000000000002F
:10518000000000000000000000000000000000001F
:10519000000000000000000000000000000000000F
:1051A00000000000000000000000000000000000FF
:1051B0003C6F7074696F6E2076616C75653D22314D
:1051C00034343030223E31343430303C2F6F707400
:1051D000696F6E3E0D0A0000000000000000000034
:1051E00000000000000000000000000000000000BF
:1051F00000000000000000000000000000000000AF
:10520000000000000000000000000000000000009E
:10521000000000003C6F7074696F6E2076616C75E1
:10522000653D223139323030223E31393230303C26
:105230002F6F7074696F6E3E0D0A00000000000051
:10524000000000000000000000000000000000005E
:10525000000000000000000000000000000000004E
:10526000000000000000000000000000000000003E
:1052700000000000000000003C6F7074696F6E2039
:1052800073656C65637465642076616C75653D2239
:105290003338343030223E33383430303C2F6F7066
:1052A00074696F6E3E0D0A000000000000000000EF
:1052B00000000000000000000000000000000000EE
:1052C00000000000000000000000000000000000DE
:1052D0000000000000000000000000003C6F70743F
:1052E000696F6E2076616C75653D223537363030DA
:1052F000223E35373630303C2F6F7074696F6E3E0A
:105300000D0A000000000000000000000000000086
:10531000000000000000000000000000000000008D
:10532000000000000000000000000000000000007D
:10533000000000000000000000000000000000006D
:105340003C6F7074696F6E2076616C75653D2231BB
:105350003135323030223E3131353230303C2F6FF2
:105360007074696F6E3E0D0A0000000000000000BE
:10537000000000000000000000000000000000002D
:10538000000000000000000000000000000000001D
:10539000000000000000000000000000000000000D
:1053A000000000003C6F7074696F6E2076616C7550
:1053B000653D2239363030223E393630303C2F6F51
:1053C0007074696F6E3E0D0A00000000000000005E
:1053D00000000000000000000000000000000000CD
:1053E00000000000000000000000000000000000BD
:1053F00000000000000000000000000000000000AD
:1054000000000000000000003C6F7074696F6E20A7
:1054100076616C75653D223134343030223E313452
:105420003430303C2F6F7074696F6E3E0D0A00008F
:10543000000000000000000000000000000000006C
:10544000000000000000000000000000000000005C
:10545000000000000000000000000000000000004C
:105460000000000000000000000000003C6F7074AD
:10547000696F6E2076616C75653D2231393230304E
:10548000223E31393230303C2F6F7074696F6E3E7E
:105490000D0A0000000000000000000000000000F5
:1054A00000000000000000000000000000000000FC
:1054B00000000000000000000000000000000000EC
:1054C00000000000000000000000000000000000DC
:1054D0003C6F7074696F6E2076616C75653D223328
:1054E00038343030223E33383430303C2F6F7074D3
:1054F000696F6E3E0D0A0000000000000000000011
:10550000000000000000000000000000000000009B
:10551000000000000000000000000000000000008B
:10552000000000000000000000000000000000007B
:10553000000000003C6F7074696F6E2073656C65CD
:10554000637465642076616C75653D22353736304D
:1055500030223E35373630303C2F6F7074696F6EB5
:105560003E0D0A00000000000000000000000000E6
:10557000000000000000000000000000000000002B
:10558000000000000000000000000000000000001B
:1055900000000000000000003C6F7074696F6E2016
:1055A00076616C75653D22313135323030223E31C5
:1055B00031353230303C2F6F7074696F6E3E0D0A9A
:1055C00000000000000000000000000000000000DB
:1055D00000000000000000000000000000000000CB
:1055E00000000000000000000000000000000000BB
:1055F0000000000000000000000000003C6F70741C
:10560000696F6E2076616C75653D223936303022C7
:105610003E393630303C2F6F7074696F6E3E0D0A24
:10562000000000000000000000000000000000007A
:10563000000000000000000000000000000000006A
:10564000000000000000000000000000000000005A
:10565000000000000000000000000000000000004A
:105660003C6F7074696F6E2076616C75653D223198
:1056700034343030223E31343430303C2F6F70744B
:10568000696F6E3E0D0A000000000000000000007F
:10569000000000000000000000000000000000000A
:1056A00000000000000000000000000000000000FA
:1056B00000000000000000000000000000000000EA
:1056C000000000003C6F7074696F6E2076616C752D
:1056D000653D223139323030223E31393230303C72
:1056E0002F6F7074696F6E3E0D0A0000000000009D
:1056F00000000000000000000000000000000000AA
:105700000000000000000000000000000000000099
:105710000000000000000000000000000000000089
:1057200000000000000000003C6F7074696F6E2084
:1057300076616C75653D223338343030223E333823
:105740003430303C2F6F7074696F6E3E0D0A00006C
:105750000000000000000000000000000000000049
:105760000000000000000000000000000000000039
:105770000000000000000000000000000000000029
:105780000000000000000000000000003C6F70748A
:10579000696F6E2076616C75653D22353736303025
:1057A000223E35373630303C2F6F7074696F6E3E55
:1057B0000D0A0000000000000000000000000000D2
:1057C00000000000000000000000000000000000D9
:1057D00000000000000000000000000000000000C9
:1057E00000000000000000000000000000000000B9
:1057F0003C6F7074696F6E2073656C65637465646B
:105800002076616C75653D22313135323030223E73
:105810003131353230303C2F6F7074696F6E3E0D10
:105820000A0000000000000000000000000000006E
:105830000000000000000000000000000000000068
:105840000000000000000000000000000000000058
:10585000000000003C6F7074696F6E2073656C65AA
:10586000637465642076616C75653D2230223E4824
:1058700045543C2F6F7074696F6E3E0D0A00000036
:105880000000000000000000000000000000000018
:105890000000000000000000000000000000000008
:1058A00000000000000000000000000000000000F8
:1058B00000000000000000003C6F7074696F6E20F3
:1058C00076616C75653D2231353336223E4F444456
:1058D0003C2F6F7074696F6E3E0D0A00000000006F
:1058E00000000000000000000000000000000000B8
:1058F00000000000000000000000000000000000A8
:105900000000000000000000000000000000000097
:105910000000000000000000000000003C6F7074F8
:10592000696F6E2076616C75653D223130323422AC
:105930003E4556454E3C2F6F7074696F6E3E0D0AA2
:105940000000000000000000000000000000000057
:105950000000000000000000000000000000000047
:105960000000000000000000000000000000000037
:105970000000000000000000000000000000000027
:105980003C6F7074696F6E2076616C75653D223076
:10599000223E4845543C2F6F7074696F6E3E0D0A6D
:1059A00000000000000000000000000000000000F7
:1059B00000000000000000000000000000000000E7
:1059C00000000000000000000000000000000000D7
:1059D00000000000000000000000000000000000C7
:1059E000000000003C6F7074696F6E2073656C6519
:1059F000637465642076616C75653D22313533369C
:105A0000223E4F44443C2F6F7074696F6E3E0D0A06
:105A10000000000000000000000000000000000086
:105A20000000000000000000000000000000000076
:105A30000000000000000000000000000000000066
:105A400000000000000000003C6F7074696F6E2061
:105A500076616C75653D2231303234223E455645C3
:105A60004E3C2F6F7074696F6E3E0D0A000000008F
:105A70000000000000000000000000000000000026
:105A80000000000000000000000000000000000016
:105A90000000000000000000000000000000000006
:105AA0000000000000000000000000003C6F707467
:105AB000696F6E2076616C75653D2230223E4845E7
:105AC000543C2F6F7074696F6E3E0D0A0000000029
:105AD00000000000000000000000000000000000C6
